:100000000C942A000C9447000C9447000C94470071
:100010000C9447000C9447000C9447000C94470044
:100020000C9447000C9447000C9447000C94470034
:100030000C9447000C9447000C9447000C94470024
:100040000C9447000C9447000C9447000C94470014
:100050000C94470011241FBECFE5D4E0DEBFCDBF16
:1000600011E0A0E6B0E0E2E0F4E102C005900D92FC
:10007000AC36B107D9F711E0ACE6B1E001C01D9292
:10008000AD39B107E1F70E9441020C94FF090C94CD
:1000900000008AEF90E0FC013197F1F7A898A99849
:1000A00040E345BBAA9A22EE34E0F9013197F1F71B
:1000B000AA98FC013197F1F7A898A99845BBAA9A8C
:1000C000F9013197F1F7AA98FC013197F1F7A89857
:1000D000A99845BBAA9AF9013197F1F7AA98019717
:1000E000F1F7A898A99880E285BBAA9AC90101975F
:1000F000F1F7AA98089595B39F7095BB25B3982FF3
:10010000907F922B95BBA898A998AA9A22EE34E0EA
:10011000F9013197F1F7AA9895B39F7095BB95B304
:100120008295807F982B95BBA898A998AA9AC90117
:100130000197F1F7AA9808958AEF90E00197F1F7F7
:1001400088E20E947B0081E00E947B0086E00E94A2
:100150007B008EE00E947B0080E80E947B00089577
:1001600095B39F7095BB25B3982F907F922B95BB2D
:10017000A89AA998AA9A22EE34E0F9013197F1F7EA
:10018000AA9895B39F7095BB95B38295807F982B65
:1001900095BBA89AA998AA9AC9010197F1F7AA98BC
:1001A000089580E80E947B000895CF93DF93EC01CF
:1001B00003C00E94B000219688818823D1F7DF9187
:1001C000CF910895823069F0833018F48130A9F41A
:1001D00005C0833049F0843081F40BC0862F8158EC
:1001E00005C0862F815402C0862F8D560E947B0049
:1001F0000895862F8D520E947B0008950F931F93C0
:10020000CF93DF938A01E901882311F0662319F463
:100210000E94D10002C00E94E200C530D10571F4F5
:10022000C80160E177E20E94B409CB01C0969093C7
:100230008F0180938E010E94B00005C0C430D105AB
:1002400011F080E016C0C80168EE73E00E94B409A6
:10025000CB0160939001909391016AE070E00E945D
:10026000B409C09690939C0180939B010E94B000BA
:1002700081E0C330D10521F0813011F080E016C05B
:10028000C80164E670E00E94B409CB01609390015C
:10029000909391016AE070E00E94B409C096909337
:1002A0009801809397010E94B00081E0C230D1058F
:1002B00021F0813011F080E016C0C8016AE070E0E2
:1002C0000E94B409CB0160939001909391016AE080
:1002D00070E00E94B409C0969093960180939501B6
:1002E0000E94B00081E0C130D10511F0813061F48D
:1002F000C8016AE070E00E94B409C09690939A0128
:10030000809399010E94B00026971CF085E40E941A
:10031000B000DF91CF911F910F91089584B3876F43
:1003200084BB85B3807885BB08951ABA1BBA08953B
:1003300087B38F6087BB88B3807F88BB81B38063BE
:1003400081BB82B3806382BB089584B3876F84BB13
:1003500085B3807885BB1ABA1BBA87B38F6087BB19
:1003600088B3807F88BB81B3806381BB82B38063A5
:1003700082BB08951EBC9FEF9DBD81E08CBD1BBC60
:100380009ABD19BC98BD17BC96BD81EA8FBD8DE0A2
:100390008EBD089516B880E287B980E888B986E8EE
:1003A00086B908958770806287B9369A349BFECFEC
:1003B00085B1349A08954770406247B9369A349BA4
:1003C000FECF45B1349A4093920150E023E030E0F3
:1003D0000E94FE00089598B3907F8F70892B88BB90
:1003E000089588B3807F866088BB089588B3807F36
:1003F000896088BB089588B3807F88BB089588B3DF
:10040000807F856088BB089588B3807F8A6088BBC1
:10041000089588B3807F846088BB089588B3807F07
:10042000826088BB089588B3807F816088BB08950F
:1004300088B3807F886088BB089588B38F6088BB4D
:1004400008951BBC8ABD19BC68BD0895F8940E942C
:10045000A5011EBC9FEF9DBD81E08CBD1BBC9ABD5C
:1004600019BC98BD17BC96BD81EA8FBD8DE08EBDCD
:1004700016B880E287B980E888B986E886B97894AA
:1004800008952F926F927F928F929F92AF92BF9218
:10049000CF92DF92EF92FF920F931F93DF93CF9350
:1004A00000D000D0CDB7DEB70E9426020E944900DE
:1004B0000E949C001BBC86E98ABD19BC88BD88B31C
:1004C000807F866088BB22242A9483E287B9369A8B
:1004D000349BFECF85B1349A80936C0194E297B936
:1004E000369A349BFECF85B1349A80936D01A5E294
:1004F000A7B9369A349BFECF85B1349A80936E01AA
:1005000081E061E043E00E94DB0181E065E044E0DE
:100510000E94DB0181E069E045E00E94DB0160911F
:100520006C0170E020916E01621B7109882777FDD4
:100530008095982F0E940D075B016C0160938201EA
:1005400070938301809384019093850120917E01B3
:1005500030917F0140918001509181010E945505A9
:100560003B014C0160938A0170938B0180938C0155
:1005700090938D0180917A0190917B01A0917C01F3
:10058000B0917D0189839A83AB83BC83C601B50199
:1005900020916000309161004091620050916300B1
:1005A0000E94B3057B018C0169817A818B819C81DA
:1005B0002091720130917301409174015091750145
:1005C0000E94B3059B01AC01C801B7010E948605DA
:1005D0007B018C01C401B301209176013091770138
:1005E00040917801509179010E94B3059B01AC01C3
:1005F000C801B7010E948605609386017093870148
:10060000809388019093890169817A818B819C8193
:10061000A60195010E94860560937A0170937B0183
:1006200080937C0190937D01A0927E01B0927F0126
:10063000C0928001D092810182E068E00E94E200D5
:100640008EE40E94B00060918201709183018091DC
:1006500084019091850120E030E040E050E00E946C
:10066000AD061816A4F482E061E00E94E2008BE27D
:100670000E94B0006091860170918701809188018D
:10068000909189010E946B079B01AC0116C082E02A
:1006900061E00E94E2008DE20E94B000609186015C
:1006A0007091870180918801909189010E946B0768
:1006B0009B01AC01309521953F4F82E062E0A9019A
:1006C00023E030E00E94FE0090916C01933328F00B
:1006D00080916E01833308F04EC0923360F58091B3
:1006E0006E01823340F580916D01823320F5809157
:1006F0006F01823300F5809170018233E0F48091C4
:1007000071018333C0F01BBC2ABC19BC28BC88B360
:10071000807F866088BB82E068E00E94E20084E41B
:100720000E94B00080E29EE4E9E1F0E03197F1F749
:100730000197D1F761C0E0908601F09087010091A8
:10074000880110918901C801B70120E030E048E438
:1007500052EC0E94AD061816FCF4C801B70120E067
:1007600030E048E452E40E94DD068823ACF4809136
:100770006D01833340F01BBC2ABC19BC28BC88B374
:10078000807F866038C01BBC9BE49ABD19BC98BDB5
:1007900088B3807F89602FC0C801B70120E030E0B6
:1007A00048E452E40E94AD0690916D01181694F44D
:1007B000933340F01BBC2ABC19BC28BC88B3807F93
:1007C000856019C01BBC2ABC19BC28BC88B3807FBB
:1007D000846011C0933340F01BBC2ABC19BC28BCF8
:1007E00088B3807F8A6007C01BBC2ABC19BC28BCA8
:1007F00088B3807F826088BB80916E018093700196
:1008000080916C0180936F0180916D0180937101E3
:100810005CCEA0E0B0E0EFE0F4E00C94C809DC01AD
:100820002B01FA019C91923008F439C1EB018881C7
:10083000823008F433C1943069F4843009F02FC158
:1008400011969C9111978981981709F428C1A4E603
:10085000B0E025C1843009F421C18230A9F492307E
:1008600009F01DC19A01AD0188E0EA010990AE01CD
:10087000E90109929E018150C1F7E2018981119637
:100880009C918923818308C1923009F407C1129693
:100890002D903C901397EB018A819B811496AD902B
:1008A000BD90CD90DC901797EC80FD800E811F816C
:1008B0009101281B390BB90137FF04C06627772740
:1008C000621B730B603271050CF061C012161306C7
:1008D0006CF537014801062E04C0969487947794EE
:1008E00067940A94D2F721E030E040E050E004C081
:1008F000220F331F441F551F6A95D2F721503040F5
:10090000404050402E213F214023512321153105E5
:100910004105510521F021E030E040E050E079014F
:100920008A01E628F728082919293CC0232BD1F190
:10093000260E371E35014601062E04C09694879474
:10094000779467940A94D2F721E030E040E050E0D9
:1009500004C0220F331F441F551F6A95D2F7215040
:100960003040404050402A213B214C215D2121153F
:1009700031054105510521F021E030E040E050E033
:1009800059016A01A628B728C828D9280BC08215A2
:1009900093052CF01C01AA24BB24650103C0EE249E
:1009A000FF24870111969C91D20111968C91981782
:1009B00009F445C0992339F0A80197012A193B0988
:1009C0004C095D0906C0A60195012E193F09400B8F
:1009D000510B57FD08C01182338222822483358354
:1009E000468357831DC081E081833382228288271A
:1009F0009927DC01821B930BA40BB50B8483958391
:100A0000A683B7830DC0220F331F441F551F2483B5
:100A100035834683578382819381019793838283B1
:100A20002481358146815781DA01C9010197A109E5
:100A3000B1098F5F9F4FAF4FBF4328F30BC0918326
:100A400033822282EA0CFB1C0C1D1D1DE482F58200
:100A50000683178383E08083248135814681578113
:100A600057FF1AC0C901AA2797FDA095BA2F817018
:100A70009070A070B0705695479537952795822B4A
:100A8000932BA42BB52B84839583A683B783828174
:100A90009381019693838283DF0101C0D201CD014E
:100AA000CDB7DEB7E2E10C94E409A0E2B0E0EBE5FB
:100AB000F5E00C94D40969837A838B839C832D831E
:100AC0003E834F835887E9E0EE2EF12CEC0EFD1E9D
:100AD000CE010196B7010E94E3088E010F5E1F4F01
:100AE000CE010596B8010E94E3088A8991E0892722
:100AF0008A8BC701B801AE01475E5F4F0E940904AF
:100B00000E940E08A096E6E00C94F009A0E2B0E086
:100B1000ECE8F5E00C94D40969837A838B839C8399
:100B20002D833E834F835887F9E0EF2EF12CEC0E96
:100B3000FD1ECE010196B7010E94E3088E010F5EF3
:100B40001F4FCE010596B8010E94E308C701B80106
:100B5000AE01475E5F4F0E9409040E940E08A096F6
:100B6000E6E00C94F009A0E2B0E0E9EBF5E00C94CB
:100B7000C80969837A838B839C832D833E834F834B
:100B80005887CE010196BE01675F7F4F0E94E30840
:100B9000CE010596BE016F5E7F4F0E94E3089985E6
:100BA000923088F089898230C8F0943019F482300C
:100BB00051F404C0843029F4923081F484E690E04A
:100BC000C6C0923049F420E09A858A89981321E0C2
:100BD0002A87CE010996BBC0823049F420E09A856D
:100BE0008A89981321E02A8BCE014196B0C02D84CA
:100BF0003E844F8458886D887E888F88988CEE2438
:100C0000FF248701AA24BB24650140E050E060E096
:100C100070E0E0E0F0E0C10181709070892BE9F0B4
:100C2000E60CF71C081D191D9A01AB012A0D3B1D8E
:100C30004C1D5D1D80E090E0A0E0B0E0E614F704FC
:100C40000805190520F481E090E0A0E0B0E0BA01C9
:100C5000A901480F591F6A1F7B1FAA0CBB1CCC1C83
:100C6000DD1C97FE08C081E090E0A0E0B0E0A82A7B
:100C7000B92ACA2ADB2A3196E032F10549F0660C1E
:100C8000771C881C991C5694479437942794C3CF9B
:100C9000FA85EA892B893C898B859C85280F391F29
:100CA0002E5F3F4F17C0CA0181709070892B61F091
:100CB00016950795F794E79480E090E0A0E0B0E8FF
:100CC000E82AF92A0A2B1B2B7695679557954795A5
:100CD0002F5F3F4F77FDE7CF0CC0440F551F661FB6
:100CE000771F17FD4160EE0CFF1C001F111F2150E4
:100CF0003040403090E0590790E0690790E4790770
:100D000060F32B8F3C8FDB01CA018F779070A0704E
:100D1000B07080349105A105B10561F447FD0AC0AA
:100D2000E114F1040105110529F0405C5F4F6F4F9C
:100D30007F4F40781A8EFE1711F081E08A8F4D8F19
:100D40005E8F6F8F78A383E0898FCE0149960E94D2
:100D50000E08A096E2E10C94E409A8E1B0E0E3EB10
:100D6000F6E00C94D40969837A838B839C832D836A
:100D70003E834F83588789E0E82EF12CEC0EFD1E50
:100D8000CE010196B7010E94E3088E010F5E1F4F4E
:100D9000CE010596B8010E94E3088985823040F0B3
:100DA0008989823028F0C701B8010E945B0901C01F
:100DB0008FEF6896E6E00C94F009A8E1B0E0E3EE6E
:100DC000F6E00C94D40969837A838B839C832D830A
:100DD0003E834F83588789E0E82EF12CEC0EFD1EF0
:100DE000CE010196B7010E94E3088E010F5E1F4FEE
:100DF000CE010596B8010E94E3088985823040F053
:100E00008989823028F0C701B8010E945B0901C0BE
:100E100081E06896E6E00C94F009A8E0B0E0E3E138
:100E2000F7E00C94D1099B01AC0183E08983DA01DE
:100E3000C9018827B7FD83959927AA27BB27B82E14
:100E4000211531054105510519F482E089833AC025
:100E50008823A9F0203080E0380780E0480780E848
:100E6000580729F460E070E080E09FEC30C0EE2489
:100E7000FF248701E21AF30A040B150B02C0790163
:100E80008A018EE1C82ED12CDC82CB82ED82FE82DB
:100E90000F831887C801B7010E94BF070197181672
:100EA000190684F4082E04C0EE0CFF1C001F111F4D
:100EB0000A94D2F7ED82FE820F831887C81AD90AE6
:100EC000DC82CB82BA82CE0101960E940E0828965F
:100ED000E9E00C94ED09ACE0B0E0E1E7F7E00C9458
:100EE000D80969837A838B839C83CE010196BE01E6
:100EF0006B5F7F4F0E94E3088D81823061F1823009
:100F000050F1843021F48E81882351F12EC02F813D
:100F1000388537FD20C06E812F3131051CF06623E6
:100F2000F9F023C08EE190E0821B930B29853A856E
:100F30004B855C8504C056954795379527958A95CE
:100F4000D2F76623B1F050954095309521953F4FEB
:100F50004F4F5F4F0EC020E030E040E050E009C04E
:100F60002FEF3FEF4FEF5FE704C020E030E040E0BD
:100F700050E8B901CA012C96E2E00C94F409EF9212
:100F8000FF920F931F937B018C0180E0E81680E0B5
:100F9000F80681E0080780E0180788F48FEFE8166C
:100FA000F1040105110531F028F088E090E0A0E09F
:100FB000B0E017C080E090E0A0E0B0E012C080E0B8
:100FC000E81680E0F80680E0080781E0180728F0BE
:100FD00088E190E0A0E0B0E004C080E190E0A0E013
:100FE000B0E020E230E040E050E0281B390B4A0B33
:100FF0005B0B04C016950795F794E7948A95D2F792
:10100000F701E459FF4F8081281B3109410951093B
:10101000C9011F910F91FF90EF900895DF92EF9219
:10102000FF920F931F93FC01E480F58006811781E6
:10103000D1808081823048F480E090E0A0E1B0E08F
:10104000E82AF92A0A2B1B2BA5C0843009F49FC07B
:10105000823021F4EE24FF24870105C0E114F1045D
:101060000105110519F4E0E0F0E096C0628173819A
:101070009FEF623879070CF05BC022E83FEF261B38
:10108000370B2A3131052CF020E030E040E050E011
:101090002AC0B801A701022E04C07695679557951E
:1010A00047950A94D2F781E090E0A0E0B0E004C058
:1010B000880F991FAA1FBB1F2A95D2F70197A10974
:1010C000B1098E219F21A023B1230097A105B1056D
:1010D00021F081E090E0A0E0B0E09A01AB01282B84
:1010E000392B4A2B5B2BDA01C9018F779070A070E6
:1010F000B07080349105A105B10539F427FF09C00E
:10110000205C3F4F4F4F5F4F04C0215C3F4F4F4F1C
:101110005F4FE0E0F0E02030A0E03A07A0E04A07AF
:10112000A0E45A0710F0E1E0F0E079018A0127C05D
:101130006038710564F5FB01E158FF4FD801C70124
:101140008F779070A070B07080349105A105B105C3
:1011500039F4E7FE0DC080E490E0A0E0B0E004C008
:101160008FE390E0A0E0B0E0E80EF91E0A1F1B1F1D
:1011700017FF05C016950795F794E794319687E019
:1011800016950795F794E7948A95D1F705C0EE2454
:10119000FF248701EFEFF0E06E2F679566276795D4
:1011A000902F9F77D794DD24D7948E2F8695492F43
:1011B000462B582F5D29B701CA011F910F91FF904F
:1011C000EF90DF900895FC01DB0140815181228185
:1011D000622F6F7770E0221F2227221F9381892FB1
:1011E000880F822B282F30E0991F9927991F11967D
:1011F0009C93119721153105A9F5411551056105FC
:10120000710511F482E037C082E89FEF13969C933A
:101210008E9312979A01AB0167E0220F331F441F90
:10122000551F6A95D1F783E08C930DC0220F331FB1
:10123000441F551F12968D919C91139701971396F9
:101240009C938E931297203080E0380780E0480707
:1012500080E4580758F314962D933D934D935C9377
:10126000179708952F3F310579F441155105610510
:10127000710519F484E08C93089564FF03C081E044
:101280008C9312C01C9210C02F57304013963C9381
:101290002E93129783E08C9387E0440F551F661FAF
:1012A000771F8A95D1F7706414964D935D936D9373
:1012B0007C93179708951F93DC01FB019C9192305A
:1012C00008F447C08081823008F443C0943051F460
:1012D00011961C91843099F58181682F70E0611B13
:1012E00071093FC0843021F0923031F48230B9F17D
:1012F0008181882389F12DC011961C91119782302C
:10130000F1F081811817D9F412962D913C91139721
:10131000828193818217930794F028173907BCF0D4
:1013200014968D919D910D90BC91A02D24813581B5
:1013300046815781281739074A075B0718F411239C
:1013400041F00AC082179307A407B50740F41123A0
:1013500019F061E070E005C06FEF7FEF02C060E060
:1013600070E0CB011F910895AA1BBB1B51E107C080
:10137000AA1FBB1FA617B70710F0A61BB70B881F25
:10138000991F5A95A9F780959095BC01CD010895B4
:101390002F923F924F925F926F927F928F929F9285
:1013A000AF92BF92CF92DF92EF92FF920F931F9373
:1013B000CF93DF93CDB7DEB7CA1BDB0B0FB6F89424
:1013C000DEBF0FBECDBF09942A88398848885F8464
:1013D0006E847D848C849B84AA84B984C884DF80D5
:1013E000EE80FD800C811B81AA81B981CE0FD11DB9
:1013F0000FB6F894DEBF0FBECDBFED010895F8948F
:02140000FFCF1C
:101402000000803F00000000000000000001020216
:10141200030303030404040404040404050505058A
:101422000505050505050505050505050606060666
:10143200060606060606060606060606060606064A
:101442000606060606060606060606060707070736
:10145200070707070707070707070707070707071A
:10146200070707070707070707070707070707070A
:1014720007070707070707070707070707070707FA
:1014820007070707070707070707070708080808E6
:1014920008080808080808080808080808080808CA
:1014A20008080808080808080808080808080808BA
:1014B20008080808080808080808080808080808AA
:1014C200080808080808080808080808080808089A
:1014D200080808080808080808080808080808088A
:1014E200080808080808080808080808080808087A
:1014F200080808080808080808080808080808086A
:0C1502000808080808080808080808087D
:00000001FF
